{
  "contractName": "HealthCare",
  "abi": [
    {
      "anonymous": false,
      "inputs": [
        {
          "indexed": false,
          "internalType": "address",
          "name": "doctorId",
          "type": "address"
        }
      ],
      "name": "DoctorAdded",
      "type": "event"
    },
    {
      "anonymous": false,
      "inputs": [
        {
          "indexed": false,
          "internalType": "address",
          "name": "patientId",
          "type": "address"
        }
      ],
      "name": "PatientAdded",
      "type": "event"
    },
    {
      "anonymous": false,
      "inputs": [
        {
          "indexed": false,
          "internalType": "string",
          "name": "cid",
          "type": "string"
        },
        {
          "indexed": false,
          "internalType": "address",
          "name": "patientId",
          "type": "address"
        },
        {
          "indexed": false,
          "internalType": "address",
          "name": "doctorId",
          "type": "address"
        }
      ],
      "name": "RecordAdded",
      "type": "event"
    },
    {
      "inputs": [
        {
          "internalType": "address",
          "name": "",
          "type": "address"
        }
      ],
      "name": "doctors",
      "outputs": [
        {
          "internalType": "address",
          "name": "id",
          "type": "address"
        }
      ],
      "stateMutability": "view",
      "type": "function",
      "constant": true
    },
    {
      "inputs": [
        {
          "internalType": "address",
          "name": "",
          "type": "address"
        }
      ],
      "name": "patients",
      "outputs": [
        {
          "internalType": "address",
          "name": "id",
          "type": "address"
        },
        {
          "internalType": "string",
          "name": "name",
          "type": "string"
        }
      ],
      "stateMutability": "view",
      "type": "function",
      "constant": true
    },
    {
      "inputs": [
        {
          "internalType": "address",
          "name": "_patientId",
          "type": "address"
        }
      ],
      "name": "addPatient",
      "outputs": [],
      "stateMutability": "nonpayable",
      "type": "function"
    },
    {
      "inputs": [],
      "name": "addDoctor",
      "outputs": [],
      "stateMutability": "nonpayable",
      "type": "function"
    },
    {
      "inputs": [
        {
          "internalType": "string",
          "name": "_cid",
          "type": "string"
        },
        {
          "internalType": "string",
          "name": "_fileName",
          "type": "string"
        },
        {
          "internalType": "address",
          "name": "_patientId",
          "type": "address"
        }
      ],
      "name": "addRecord",
      "outputs": [],
      "stateMutability": "nonpayable",
      "type": "function"
    },
    {
      "inputs": [
        {
          "internalType": "address",
          "name": "_patientId",
          "type": "address"
        }
      ],
      "name": "getRecords",
      "outputs": [
        {
          "components": [
            {
              "internalType": "string",
              "name": "cid",
              "type": "string"
            },
            {
              "internalType": "string",
              "name": "fileName",
              "type": "string"
            },
            {
              "internalType": "address",
              "name": "patientId",
              "type": "address"
            },
            {
              "internalType": "address",
              "name": "doctorId",
              "type": "address"
            },
            {
              "internalType": "uint256",
              "name": "timeAdded",
              "type": "uint256"
            }
          ],
          "internalType": "struct HealthCare.Record[]",
          "name": "",
          "type": "tuple[]"
        }
      ],
      "stateMutability": "view",
      "type": "function",
      "constant": true
    },
    {
      "inputs": [],
      "name": "getSenderRole",
      "outputs": [
        {
          "internalType": "string",
          "name": "",
          "type": "string"
        }
      ],
      "stateMutability": "view",
      "type": "function",
      "constant": true
    },
    {
      "inputs": [
        {
          "internalType": "address",
          "name": "_patientId",
          "type": "address"
        }
      ],
      "name": "getPatientExists",
      "outputs": [
        {
          "internalType": "bool",
          "name": "",
          "type": "bool"
        }
      ],
      "stateMutability": "view",
      "type": "function",
      "constant": true
    }
  ],
  "bytecode": "0x608060405234801561001057600080fd5b50611b1f806100206000396000f3fe608060405234801561001057600080fd5b50600436106100885760003560e01c806375a3f4e31161005b57806375a3f4e3146101145780637bc769ed1461011e578063a0076e841461014e578063a9583c221461017e57610088565b80630869cfbc1461008d5780633a88162e146100be57806356daecb3146100dc5780636d263ceb146100f8575b600080fd5b6100a760048036038101906100a29190611324565b6101ae565b6040516100b59291906113f9565b60405180910390f35b6100c661027a565b6040516100d39190611429565b60405180910390f35b6100f660048036038101906100f19190611580565b61045b565b005b610112600480360381019061010d9190611324565b6107d3565b005b61011c610a2c565b005b61013860048036038101906101339190611324565b610bb6565b6040516101459190611626565b60405180910390f35b61016860048036038101906101639190611324565b610d1f565b60405161017591906117f2565b60405180910390f35b61019860048036038101906101939190611324565b6111d1565b6040516101a59190611814565b60405180910390f35b60006020528060005260406000206000915090508060000160009054906101000a900473ffffffffffffffffffffffffffffffffffffffff16908060010180546101f79061185e565b80601f01602080910402602001604051908101604052809291908181526020018280546102239061185e565b80156102705780601f1061024557610100808354040283529160200191610270565b820191906000526020600020905b81548152906001019060200180831161025357829003601f168201915b5050505050905082565b60603373ffffffffffffffffffffffffffffffffffffffff16600160003373ffffffffffffffffffffffffffffffffffffffff1673ffffffffffffffffffffffffffffffffffffffff16815260200190815260200160002060000160009054906101000a900473ffffffffffffffffffffffffffffffffffffffff1673ffffffffffffffffffffffffffffffffffffffff160361034e576040518060400160405280600681526020017f646f63746f7200000000000000000000000000000000000000000000000000008152509050610458565b3373ffffffffffffffffffffffffffffffffffffffff166000803373ffffffffffffffffffffffffffffffffffffffff1673ffffffffffffffffffffffffffffffffffffffff16815260200190815260200160002060000160009054906101000a900473ffffffffffffffffffffffffffffffffffffffff1673ffffffffffffffffffffffffffffffffffffffff160361041f576040518060400160405280600781526020017f70617469656e74000000000000000000000000000000000000000000000000008152509050610458565b6040518060400160405280600781526020017f756e6b6e6f776e0000000000000000000000000000000000000000000000000081525090505b90565b3373ffffffffffffffffffffffffffffffffffffffff16600160003373ffffffffffffffffffffffffffffffffffffffff1673ffffffffffffffffffffffffffffffffffffffff16815260200190815260200160002060000160009054906101000a900473ffffffffffffffffffffffffffffffffffffffff1673ffffffffffffffffffffffffffffffffffffffff161461052b576040517f08c379a0000000000000000000000000000000000000000000000000000000008152600401610522906118db565b60405180910390fd5b808073ffffffffffffffffffffffffffffffffffffffff166000808373ffffffffffffffffffffffffffffffffffffffff1673ffffffffffffffffffffffffffffffffffffffff16815260200190815260200160002060000160009054906101000a900473ffffffffffffffffffffffffffffffffffffffff1673ffffffffffffffffffffffffffffffffffffffff16146105fb576040517f08c379a00000000000000000000000000000000000000000000000000000000081526004016105f290611947565b60405180910390fd5b60006040518060a001604052808681526020018581526020018473ffffffffffffffffffffffffffffffffffffffff1681526020013373ffffffffffffffffffffffffffffffffffffffff1681526020014281525090506000808473ffffffffffffffffffffffffffffffffffffffff1673ffffffffffffffffffffffffffffffffffffffff16815260200190815260200160002060020181908060018154018082558091505060019003906000526020600020906005020160009091909190915060008201518160000190805190602001906106d992919061120f565b5060208201518160010190805190602001906106f692919061120f565b5060408201518160020160006101000a81548173ffffffffffffffffffffffffffffffffffffffff021916908373ffffffffffffffffffffffffffffffffffffffff16021790555060608201518160030160006101000a81548173ffffffffffffffffffffffffffffffffffffffff021916908373ffffffffffffffffffffffffffffffffffffffff1602179055506080820151816004015550507f79439a93ba0b8067e556b3942a78ac58d991c58e2e23041c4e7aa1c446fc11888584336040516107c493929190611967565b60405180910390a15050505050565b3373ffffffffffffffffffffffffffffffffffffffff16600160003373ffffffffffffffffffffffffffffffffffffffff1673ffffffffffffffffffffffffffffffffffffffff16815260200190815260200160002060000160009054906101000a900473ffffffffffffffffffffffffffffffffffffffff1673ffffffffffffffffffffffffffffffffffffffff16146108a3576040517f08c379a000000000000000000000000000000000000000000000000000000000815260040161089a906118db565b60405180910390fd5b8073ffffffffffffffffffffffffffffffffffffffff166000808373ffffffffffffffffffffffffffffffffffffffff1673ffffffffffffffffffffffffffffffffffffffff16815260200190815260200160002060000160009054906101000a900473ffffffffffffffffffffffffffffffffffffffff1673ffffffffffffffffffffffffffffffffffffffff1603610972576040517f08c379a0000000000000000000000000000000000000000000000000000000008152600401610969906119f1565b60405180910390fd5b806000808373ffffffffffffffffffffffffffffffffffffffff1673ffffffffffffffffffffffffffffffffffffffff16815260200190815260200160002060000160006101000a81548173ffffffffffffffffffffffffffffffffffffffff021916908373ffffffffffffffffffffffffffffffffffffffff1602179055507fa58cff07db0adda3ab7a40bd2f18ab57210bf38391a52ffd2e8eee6b8bdec71a81604051610a219190611814565b60405180910390a150565b3373ffffffffffffffffffffffffffffffffffffffff16600160003373ffffffffffffffffffffffffffffffffffffffff1673ffffffffffffffffffffffffffffffffffffffff16815260200190815260200160002060000160009054906101000a900473ffffffffffffffffffffffffffffffffffffffff1673ffffffffffffffffffffffffffffffffffffffff1603610afc576040517f08c379a0000000000000000000000000000000000000000000000000000000008152600401610af390611a5d565b60405180910390fd5b33600160003373ffffffffffffffffffffffffffffffffffffffff1673ffffffffffffffffffffffffffffffffffffffff16815260200190815260200160002060000160006101000a81548173ffffffffffffffffffffffffffffffffffffffff021916908373ffffffffffffffffffffffffffffffffffffffff1602179055507f69908b2e63170aa89ef89719bbe3b4c92cccc38653968ab25f4464eff7c28ac833604051610bac9190611814565b60405180910390a1565b60003373ffffffffffffffffffffffffffffffffffffffff16600160003373ffffffffffffffffffffffffffffffffffffffff1673ffffffffffffffffffffffffffffffffffffffff16815260200190815260200160002060000160009054906101000a900473ffffffffffffffffffffffffffffffffffffffff1673ffffffffffffffffffffffffffffffffffffffff1614610c88576040517f08c379a0000000000000000000000000000000000000000000000000000000008152600401610c7f906118db565b60405180910390fd5b8173ffffffffffffffffffffffffffffffffffffffff166000808473ffffffffffffffffffffffffffffffffffffffff1673ffffffffffffffffffffffffffffffffffffffff16815260200190815260200160002060000160009054906101000a900473ffffffffffffffffffffffffffffffffffffffff1673ffffffffffffffffffffffffffffffffffffffff16149050919050565b60603373ffffffffffffffffffffffffffffffffffffffff16600160003373ffffffffffffffffffffffffffffffffffffffff1673ffffffffffffffffffffffffffffffffffffffff16815260200190815260200160002060000160009054906101000a900473ffffffffffffffffffffffffffffffffffffffff1673ffffffffffffffffffffffffffffffffffffffff161480610e4957503373ffffffffffffffffffffffffffffffffffffffff166000803373ffffffffffffffffffffffffffffffffffffffff1673ffffffffffffffffffffffffffffffffffffffff16815260200190815260200160002060000160009054906101000a900473ffffffffffffffffffffffffffffffffffffffff1673ffffffffffffffffffffffffffffffffffffffff16145b610e88576040517f08c379a0000000000000000000000000000000000000000000000000000000008152600401610e7f90611ac9565b60405180910390fd5b818073ffffffffffffffffffffffffffffffffffffffff166000808373ffffffffffffffffffffffffffffffffffffffff1673ffffffffffffffffffffffffffffffffffffffff16815260200190815260200160002060000160009054906101000a900473ffffffffffffffffffffffffffffffffffffffff1673ffffffffffffffffffffffffffffffffffffffff1614610f58576040517f08c379a0000000000000000000000000000000000000000000000000000000008152600401610f4f90611947565b60405180910390fd5b6000808473ffffffffffffffffffffffffffffffffffffffff1673ffffffffffffffffffffffffffffffffffffffff168152602001908152602001600020600201805480602002602001604051908101604052809291908181526020016000905b828210156111c557838290600052602060002090600502016040518060a0016040529081600082018054610fec9061185e565b80601f01602080910402602001604051908101604052809291908181526020018280546110189061185e565b80156110655780601f1061103a57610100808354040283529160200191611065565b820191906000526020600020905b81548152906001019060200180831161104857829003601f168201915b5050505050815260200160018201805461107e9061185e565b80601f01602080910402602001604051908101604052809291908181526020018280546110aa9061185e565b80156110f75780601f106110cc576101008083540402835291602001916110f7565b820191906000526020600020905b8154815290600101906020018083116110da57829003601f168201915b505050505081526020016002820160009054906101000a900473ffffffffffffffffffffffffffffffffffffffff1673ffffffffffffffffffffffffffffffffffffffff1673ffffffffffffffffffffffffffffffffffffffff1681526020016003820160009054906101000a900473ffffffffffffffffffffffffffffffffffffffff1673ffffffffffffffffffffffffffffffffffffffff1673ffffffffffffffffffffffffffffffffffffffff16815260200160048201548152505081526020019060010190610fb9565b50505050915050919050565b60016020528060005260406000206000915090508060000160009054906101000a900473ffffffffffffffffffffffffffffffffffffffff16905081565b82805461121b9061185e565b90600052602060002090601f01602090048101928261123d5760008555611284565b82601f1061125657805160ff1916838001178555611284565b82800160010185558215611284579182015b82811115611283578251825591602001919060010190611268565b5b5090506112919190611295565b5090565b5b808211156112ae576000816000905550600101611296565b5090565b6000604051905090565b600080fd5b600080fd5b600073ffffffffffffffffffffffffffffffffffffffff82169050919050565b60006112f1826112c6565b9050919050565b611301816112e6565b811461130c57600080fd5b50565b60008135905061131e816112f8565b92915050565b60006020828403121561133a576113396112bc565b5b60006113488482850161130f565b91505092915050565b61135a816112e6565b82525050565b600081519050919050565b600082825260208201905092915050565b60005b8381101561139a57808201518184015260208101905061137f565b838111156113a9576000848401525b50505050565b6000601f19601f8301169050919050565b60006113cb82611360565b6113d5818561136b565b93506113e581856020860161137c565b6113ee816113af565b840191505092915050565b600060408201905061140e6000830185611351565b818103602083015261142081846113c0565b90509392505050565b6000602082019050818103600083015261144381846113c0565b905092915050565b600080fd5b600080fd5b7f4e487b7100000000000000000000000000000000000000000000000000000000600052604160045260246000fd5b61148d826113af565b810181811067ffffffffffffffff821117156114ac576114ab611455565b5b80604052505050565b60006114bf6112b2565b90506114cb8282611484565b919050565b600067ffffffffffffffff8211156114eb576114ea611455565b5b6114f4826113af565b9050602081019050919050565b82818337600083830152505050565b600061152361151e846114d0565b6114b5565b90508281526020810184848401111561153f5761153e611450565b5b61154a848285611501565b509392505050565b600082601f8301126115675761156661144b565b5b8135611577848260208601611510565b91505092915050565b600080600060608486031215611599576115986112bc565b5b600084013567ffffffffffffffff8111156115b7576115b66112c1565b5b6115c386828701611552565b935050602084013567ffffffffffffffff8111156115e4576115e36112c1565b5b6115f086828701611552565b92505060406116018682870161130f565b9150509250925092565b60008115159050919050565b6116208161160b565b82525050565b600060208201905061163b6000830184611617565b92915050565b600081519050919050565b600082825260208201905092915050565b6000819050602082019050919050565b600082825260208201905092915050565b600061168982611360565b611693818561166d565b93506116a381856020860161137c565b6116ac816113af565b840191505092915050565b6116c0816112e6565b82525050565b6000819050919050565b6116d9816116c6565b82525050565b600060a08301600083015184820360008601526116fc828261167e565b91505060208301518482036020860152611716828261167e565b915050604083015161172b60408601826116b7565b50606083015161173e60608601826116b7565b50608083015161175160808601826116d0565b508091505092915050565b600061176883836116df565b905092915050565b6000602082019050919050565b600061178882611641565b611792818561164c565b9350836020820285016117a48561165d565b8060005b858110156117e057848403895281516117c1858261175c565b94506117cc83611770565b925060208a019950506001810190506117a8565b50829750879550505050505092915050565b6000602082019050818103600083015261180c818461177d565b905092915050565b60006020820190506118296000830184611351565b92915050565b7f4e487b7100000000000000000000000000000000000000000000000000000000600052602260045260246000fd5b6000600282049050600182168061187657607f821691505b6020821081036118895761188861182f565b5b50919050565b7f53656e646572206973206e6f74206120646f63746f7200000000000000000000600082015250565b60006118c560168361136b565b91506118d08261188f565b602082019050919050565b600060208201905081810360008301526118f4816118b8565b9050919050565b7f50617469656e7420646f6573206e6f7420657869737400000000000000000000600082015250565b600061193160168361136b565b915061193c826118fb565b602082019050919050565b6000602082019050818103600083015261196081611924565b9050919050565b6000606082019050818103600083015261198181866113c0565b90506119906020830185611351565b61199d6040830184611351565b949350505050565b7f546869732070617469656e7420616c7265616479206578697374732e00000000600082015250565b60006119db601c8361136b565b91506119e6826119a5565b602082019050919050565b60006020820190508181036000830152611a0a816119ce565b9050919050565b7f5468697320646f63746f7220616c7265616479206578697374732e0000000000600082015250565b6000611a47601b8361136b565b9150611a5282611a11565b602082019050919050565b60006020820190508181036000830152611a7681611a3a565b9050919050565b7f53656e64657220646f6573206e6f742065786973740000000000000000000000600082015250565b6000611ab360158361136b565b9150611abe82611a7d565b602082019050919050565b60006020820190508181036000830152611ae281611aa6565b905091905056fea2646970667358221220ec1020257b7d7733d43b82f5a0ddf70b85248c40dd28001b1281764b0722ab0c64736f6c634300080d0033",
  "immutableReferences": {},
  "source": "// SPDX-License-Identifier: MIT\r\n// Tells the Solidity compiler to compile only from v0.8.13 to v0.9.0\r\npragma solidity ^0.8.13;\r\n\r\ncontract HealthCare {\r\n    // Define a struct to represent a patient's medical record.\r\n    struct Record {\r\n        string cid;\r\n        string fileName;\r\n        address patientId;\r\n        address doctorId;\r\n        uint256 timeAdded;\r\n    }\r\n\r\n    // Define a struct to represent a patient.\r\n    struct Patient {\r\n        address id;\r\n        string name;\r\n        Record[] records;\r\n    }\r\n\r\n    // Define a struct to represent a doctor.\r\n    struct Doctor {\r\n        address id;\r\n    }\r\n\r\n    // Define mappings to keep track of patients and doctors in the system.\r\n    mapping(address => Patient) public patients;\r\n    mapping(address => Doctor) public doctors;\r\n\r\n    // Define events that can be emitted to signify when a new patient, doctor or record is added.\r\n    event PatientAdded(address patientId);\r\n    event DoctorAdded(address doctorId);\r\n    event RecordAdded(string cid, address patientId, address doctorId);\r\n\r\n    // Define modifiers to check for sender existence, patient existence and doctor status.\r\n    modifier senderExists() {\r\n        require(\r\n            doctors[msg.sender].id == msg.sender ||\r\n                patients[msg.sender].id == msg.sender,\r\n            \"Sender does not exist\"\r\n        );\r\n        _;\r\n    }\r\n\r\n    modifier patientExists(address patientId) {\r\n        require(patients[patientId].id == patientId, \"Patient does not exist\");\r\n        _;\r\n    }\r\n\r\n    modifier onlyDoctor() {\r\n        require(doctors[msg.sender].id == msg.sender, \"Sender is not a doctor\");\r\n        _;\r\n    }\r\n\r\n    // Define functions to add a new patient, doctor or record, get all patient records, get the role of the sender, and check if a patient exists.\r\n    function addPatient(address _patientId) public onlyDoctor {\r\n        // Check that the patient doesn't already exist.\r\n        require(\r\n            patients[_patientId].id != _patientId,\r\n            \"This patient already exists.\"\r\n        );\r\n        // Set the id of the patient to the provided address.\r\n        patients[_patientId].id = _patientId;\r\n        // Emit an event to signify that a new patient has been added.\r\n        emit PatientAdded(_patientId);\r\n    }\r\n\r\n    function addDoctor() public {\r\n        // Check that the doctor doesn't already exist.\r\n        require(\r\n            doctors[msg.sender].id != msg.sender,\r\n            \"This doctor already exists.\"\r\n        );\r\n        // Set the id of the doctor to the message sender's address.\r\n        doctors[msg.sender].id = msg.sender;\r\n        // Emit an event to signify that a new doctor has been added.\r\n        emit DoctorAdded(msg.sender);\r\n    }\r\n\r\n    function addRecord(\r\n        string memory _cid,\r\n        string memory _fileName,\r\n        address _patientId\r\n    ) public onlyDoctor patientExists(_patientId) {\r\n        // Create a new record object and fill it with the details about the provided record.\r\n        Record memory record = Record(\r\n            _cid,\r\n            _fileName,\r\n            _patientId,\r\n            msg.sender,\r\n            block.timestamp\r\n        );\r\n        // Add the newly created record object to the records array of the targeted patient.\r\n        patients[_patientId].records.push(record);\r\n        // Emit an event to signify that a new record has been added.\r\n        emit RecordAdded(_cid, _patientId, msg.sender);\r\n    }\r\n\r\n    function getRecords(\r\n        address _patientId\r\n    )\r\n        public\r\n        view\r\n        senderExists\r\n        patientExists(_patientId)\r\n        returns (Record[] memory)\r\n    {\r\n        // Return all medical records for the targeted patient.\r\n        return patients[_patientId].records;\r\n    }\r\n\r\n    function getSenderRole() public view returns (string memory) {\r\n        // Determine the role of the message sender and return it as a string.\r\n        if (doctors[msg.sender].id == msg.sender) {\r\n            return \"doctor\";\r\n        } else if (patients[msg.sender].id == msg.sender) {\r\n            return \"patient\";\r\n        } else {\r\n            return \"unknown\";\r\n        }\r\n    }\r\n\r\n    function getPatientExists(\r\n        address _patientId\r\n    ) public view onlyDoctor returns (bool) {\r\n        // Check whether a patient with the provided address exists in the system.\r\n        return patients[_patientId].id == _patientId;\r\n    }\r\n}\r\n",
  "sourcePath": "E:\\Blockchain\\healthcare-contracts\\contracts\\HealthCare.sol",
  "compiler": {
    "name": "solc",
    "version": "0.8.13+commit.abaa5c0e.Emscripten.clang"
  },
  "schemaVersion": "3.4.14",
  "updatedAt": "2023-06-12T13:31:50.530Z",
  "networkType": "ethereum",
  "devdoc": {
    "kind": "dev",
    "methods": {},
    "version": 1
  },
  "userdoc": {
    "kind": "user",
    "methods": {},
    "version": 1
  }
}